{
  "contractName": "PayByLocation",
  "abi": [
    {
      "inputs": [],
      "stateMutability": "nonpayable",
      "type": "constructor"
    },
    {
      "inputs": [],
      "name": "employeeCount",
      "outputs": [
        {
          "internalType": "uint256",
          "name": "",
          "type": "uint256"
        }
      ],
      "stateMutability": "view",
      "type": "function",
      "constant": true
    },
    {
      "inputs": [
        {
          "internalType": "address",
          "name": "",
          "type": "address"
        }
      ],
      "name": "employees",
      "outputs": [
        {
          "internalType": "string",
          "name": "name",
          "type": "string"
        },
        {
          "internalType": "uint256",
          "name": "distance",
          "type": "uint256"
        },
        {
          "internalType": "uint256",
          "name": "registeredAt",
          "type": "uint256"
        },
        {
          "internalType": "uint256",
          "name": "contractEnd",
          "type": "uint256"
        },
        {
          "internalType": "int256",
          "name": "lat",
          "type": "int256"
        },
        {
          "internalType": "int256",
          "name": "lng",
          "type": "int256"
        },
        {
          "internalType": "bool",
          "name": "comply",
          "type": "bool"
        },
        {
          "internalType": "bool",
          "name": "paid",
          "type": "bool"
        }
      ],
      "stateMutability": "view",
      "type": "function",
      "constant": true
    },
    {
      "inputs": [
        {
          "internalType": "uint256",
          "name": "",
          "type": "uint256"
        }
      ],
      "name": "employeesAddress",
      "outputs": [
        {
          "internalType": "address",
          "name": "",
          "type": "address"
        }
      ],
      "stateMutability": "view",
      "type": "function",
      "constant": true
    },
    {
      "inputs": [
        {
          "internalType": "address",
          "name": "_employeeAddress",
          "type": "address"
        },
        {
          "internalType": "string",
          "name": "_name",
          "type": "string"
        },
        {
          "internalType": "uint256",
          "name": "_allowedDistance",
          "type": "uint256"
        },
        {
          "internalType": "uint256",
          "name": "_contractEnd",
          "type": "uint256"
        },
        {
          "internalType": "int256",
          "name": "_lat",
          "type": "int256"
        },
        {
          "internalType": "int256",
          "name": "_lng",
          "type": "int256"
        }
      ],
      "name": "addEmployee",
      "outputs": [],
      "stateMutability": "nonpayable",
      "type": "function"
    },
    {
      "inputs": [
        {
          "internalType": "uint256",
          "name": "index",
          "type": "uint256"
        }
      ],
      "name": "getEmployee",
      "outputs": [
        {
          "components": [
            {
              "internalType": "string",
              "name": "name",
              "type": "string"
            },
            {
              "internalType": "uint256",
              "name": "distance",
              "type": "uint256"
            },
            {
              "internalType": "uint256",
              "name": "registeredAt",
              "type": "uint256"
            },
            {
              "internalType": "uint256",
              "name": "contractEnd",
              "type": "uint256"
            },
            {
              "internalType": "int256",
              "name": "lat",
              "type": "int256"
            },
            {
              "internalType": "int256",
              "name": "lng",
              "type": "int256"
            },
            {
              "internalType": "bool",
              "name": "comply",
              "type": "bool"
            },
            {
              "internalType": "bool",
              "name": "paid",
              "type": "bool"
            }
          ],
          "internalType": "struct PayByLocation.Employee",
          "name": "",
          "type": "tuple"
        }
      ],
      "stateMutability": "view",
      "type": "function",
      "constant": true
    },
    {
      "inputs": [],
      "name": "getEmployees",
      "outputs": [
        {
          "components": [
            {
              "internalType": "string",
              "name": "name",
              "type": "string"
            },
            {
              "internalType": "uint256",
              "name": "distance",
              "type": "uint256"
            },
            {
              "internalType": "uint256",
              "name": "registeredAt",
              "type": "uint256"
            },
            {
              "internalType": "uint256",
              "name": "contractEnd",
              "type": "uint256"
            },
            {
              "internalType": "int256",
              "name": "lat",
              "type": "int256"
            },
            {
              "internalType": "int256",
              "name": "lng",
              "type": "int256"
            },
            {
              "internalType": "bool",
              "name": "comply",
              "type": "bool"
            },
            {
              "internalType": "bool",
              "name": "paid",
              "type": "bool"
            }
          ],
          "internalType": "struct PayByLocation.Employee[]",
          "name": "",
          "type": "tuple[]"
        }
      ],
      "stateMutability": "view",
      "type": "function",
      "constant": true
    },
    {
      "inputs": [
        {
          "internalType": "int256",
          "name": "_lat",
          "type": "int256"
        },
        {
          "internalType": "int256",
          "name": "_lng",
          "type": "int256"
        }
      ],
      "name": "evaluate",
      "outputs": [],
      "stateMutability": "nonpayable",
      "type": "function"
    },
    {
      "inputs": [],
      "name": "getSender",
      "outputs": [
        {
          "internalType": "address",
          "name": "",
          "type": "address"
        }
      ],
      "stateMutability": "view",
      "type": "function",
      "constant": true
    }
  ],
  "bytecode": "0x608060405234801561001057600080fd5b506000600281905550611beb806100286000396000f3fe608060405234801561001057600080fd5b50600436106100885760003560e01c80639047bf581161005b5780639047bf5814610115578063bca9a5c514610133578063d067894714610163578063f8bb49a11461019a57610088565b80631abb590b1461008d5780631f35dba7146100a95780634abefa36146100d95780635e01eb5a146100f7575b600080fd5b6100a760048036038101906100a29190610ea9565b6101b6565b005b6100c360048036038101906100be9190610f52565b61033f565b6040516100d09190610f8e565b60405180910390f35b6100e1610372565b6040516100ee91906111d3565b60405180910390f35b6100ff61058b565b60405161010c9190610f8e565b60405180910390f35b61011d610593565b60405161012a9190611204565b60405180910390f35b61014d60048036038101906101489190610f52565b610599565b60405161015a91906112cf565b60405180910390f35b61017d600480360381019061017891906112f1565b61071f565b604051610191989796959493929190611386565b60405180910390f35b6101b460048036038101906101af919061140b565b610809565b005b60004290506000604051806101000160405280888152602001878152602001838152602001868152602001858152602001848152602001600115158152602001600015158152509050806000808a73ffffffffffffffffffffffffffffffffffffffff1673ffffffffffffffffffffffffffffffffffffffff16815260200190815260200160002060008201518160000190816102539190611657565b506020820151816001015560408201518160020155606082015181600301556080820151816004015560a0820151816005015560c08201518160060160006101000a81548160ff02191690831515021790555060e08201518160060160016101000a81548160ff0219169083151502179055509050508760016000600254815260200190815260200160002060006101000a81548173ffffffffffffffffffffffffffffffffffffffff021916908373ffffffffffffffffffffffffffffffffffffffff1602179055506002600081548092919061033090611758565b91905055505050505050505050565b60016020528060005260406000206000915054906101000a900473ffffffffffffffffffffffffffffffffffffffff1681565b6060600060025467ffffffffffffffff81111561039257610391610d12565b5b6040519080825280602002602001820160405280156103cb57816020015b6103b8610c3c565b8152602001906001900390816103b05790505b50905060005b600254811015610583576000806001600084815260200190815260200160002060009054906101000a900473ffffffffffffffffffffffffffffffffffffffff1673ffffffffffffffffffffffffffffffffffffffff1673ffffffffffffffffffffffffffffffffffffffff168152602001908152602001600020604051806101000160405290816000820180546104689061147a565b80601f01602080910402602001604051908101604052809291908181526020018280546104949061147a565b80156104e15780601f106104b6576101008083540402835291602001916104e1565b820191906000526020600020905b8154815290600101906020018083116104c457829003601f168201915b5050505050815260200160018201548152602001600282015481526020016003820154815260200160048201548152602001600582015481526020016006820160009054906101000a900460ff161515151581526020016006820160019054906101000a900460ff161515151581525050828281518110610565576105646117a0565b5b6020026020010181905250808061057b90611758565b9150506103d1565b508091505090565b600033905090565b60025481565b6105a1610c3c565b6000806001600085815260200190815260200160002060009054906101000a900473ffffffffffffffffffffffffffffffffffffffff1673ffffffffffffffffffffffffffffffffffffffff1673ffffffffffffffffffffffffffffffffffffffff1681526020019081526020016000206040518061010001604052908160008201805461062e9061147a565b80601f016020809104026020016040519081016040528092919081815260200182805461065a9061147a565b80156106a75780601f1061067c576101008083540402835291602001916106a7565b820191906000526020600020905b81548152906001019060200180831161068a57829003601f168201915b5050505050815260200160018201548152602001600282015481526020016003820154815260200160048201548152602001600582015481526020016006820160009054906101000a900460ff161515151581526020016006820160019054906101000a900460ff1615151515815250509050919050565b60006020528060005260406000206000915090508060000180546107429061147a565b80601f016020809104026020016040519081016040528092919081815260200182805461076e9061147a565b80156107bb5780601f10610790576101008083540402835291602001916107bb565b820191906000526020600020905b81548152906001019060200180831161079e57829003601f168201915b5050505050908060010154908060020154908060030154908060040154908060050154908060060160009054906101000a900460ff16908060060160019054906101000a900460ff16905088565b600033905060008060008373ffffffffffffffffffffffffffffffffffffffff1673ffffffffffffffffffffffffffffffffffffffff16815260200190815260200160002090506000610963858584604051806101000160405290816000820180546108749061147a565b80601f01602080910402602001604051908101604052809291908181526020018280546108a09061147a565b80156108ed5780601f106108c2576101008083540402835291602001916108ed565b820191906000526020600020905b8154815290600101906020018083116108d057829003601f168201915b5050505050815260200160018201548152602001600282015481526020016003820154815260200160048201548152602001600582015481526020016006820160009054906101000a900460ff161515151581526020016006820160019054906101000a900460ff161515151581525050610b61565b9050808015610976575081600301544210155b801561099157508160060160019054906101000a900460ff16155b15610a075760018260060160016101000a81548160ff0219169083151502179055508273ffffffffffffffffffffffffffffffffffffffff166108fc670de0b6b3a76400009081150290604051600060405180830381858888f19350505050158015610a01573d6000803e3d6000fd5b50610a77565b80158015610a185750816003015442105b15610a7657670de0b6b3a76400004710610a75578273ffffffffffffffffffffffffffffffffffffffff166108fc60009081150290604051600060405180830381858888f19350505050158015610a73573d6000803e3d6000fd5b505b5b5b816000808573ffffffffffffffffffffffffffffffffffffffff1673ffffffffffffffffffffffffffffffffffffffff16815260200190815260200160002060008201816000019081610aca91906117e5565b5060018201548160010155600282015481600201556003820154816003015560048201548160040155600582015481600501556006820160009054906101000a900460ff168160060160006101000a81548160ff0219169083151502179055506006820160019054906101000a900460ff168160060160016101000a81548160ff0219169083151502179055509050505050505050565b600080610b78858585608001518660a00151610b8c565b905082602001518113159150509392505050565b600080610bd160028487610ba091906118cd565b610baa9190611a6c565b60028689610bb891906118cd565b610bc29190611a6c565b610bcc9190611ad8565b610bdf565b905080915050949350505050565b6000806002600184610bf19190611ad8565b610bfb9190611b4b565b90508291505b81811215610c36578091506002818285610c1b9190611b4b565b610c259190611ad8565b610c2f9190611b4b565b9050610c01565b50919050565b6040518061010001604052806060815260200160008152602001600081526020016000815260200160008152602001600081526020016000151581526020016000151581525090565b6000604051905090565b600080fd5b600080fd5b600073ffffffffffffffffffffffffffffffffffffffff82169050919050565b6000610cc482610c99565b9050919050565b610cd481610cb9565b8114610cdf57600080fd5b50565b600081359050610cf181610ccb565b92915050565b600080fd5b600080fd5b6000601f19601f8301169050919050565b7f4e487b7100000000000000000000000000000000000000000000000000000000600052604160045260246000fd5b610d4a82610d01565b810181811067ffffffffffffffff82111715610d6957610d68610d12565b5b80604052505050565b6000610d7c610c85565b9050610d888282610d41565b919050565b600067ffffffffffffffff821115610da857610da7610d12565b5b610db182610d01565b9050602081019050919050565b82818337600083830152505050565b6000610de0610ddb84610d8d565b610d72565b905082815260208101848484011115610dfc57610dfb610cfc565b5b610e07848285610dbe565b509392505050565b600082601f830112610e2457610e23610cf7565b5b8135610e34848260208601610dcd565b91505092915050565b6000819050919050565b610e5081610e3d565b8114610e5b57600080fd5b50565b600081359050610e6d81610e47565b92915050565b6000819050919050565b610e8681610e73565b8114610e9157600080fd5b50565b600081359050610ea381610e7d565b92915050565b60008060008060008060c08789031215610ec657610ec5610c8f565b5b6000610ed489828a01610ce2565b965050602087013567ffffffffffffffff811115610ef557610ef4610c94565b5b610f0189828a01610e0f565b9550506040610f1289828a01610e5e565b9450506060610f2389828a01610e5e565b9350506080610f3489828a01610e94565b92505060a0610f4589828a01610e94565b9150509295509295509295565b600060208284031215610f6857610f67610c8f565b5b6000610f7684828501610e5e565b91505092915050565b610f8881610cb9565b82525050565b6000602082019050610fa36000830184610f7f565b92915050565b600081519050919050565b600082825260208201905092915050565b6000819050602082019050919050565b600081519050919050565b600082825260208201905092915050565b60005b8381101561100f578082015181840152602081019050610ff4565b60008484015250505050565b600061102682610fd5565b6110308185610fe0565b9350611040818560208601610ff1565b61104981610d01565b840191505092915050565b61105d81610e3d565b82525050565b61106c81610e73565b82525050565b60008115159050919050565b61108781611072565b82525050565b60006101008301600083015184820360008601526110ab828261101b565b91505060208301516110c06020860182611054565b5060408301516110d36040860182611054565b5060608301516110e66060860182611054565b5060808301516110f96080860182611063565b5060a083015161110c60a0860182611063565b5060c083015161111f60c086018261107e565b5060e083015161113260e086018261107e565b508091505092915050565b6000611149838361108d565b905092915050565b6000602082019050919050565b600061116982610fa9565b6111738185610fb4565b93508360208202850161118585610fc5565b8060005b858110156111c157848403895281516111a2858261113d565b94506111ad83611151565b925060208a01995050600181019050611189565b50829750879550505050505092915050565b600060208201905081810360008301526111ed818461115e565b905092915050565b6111fe81610e3d565b82525050565b600060208201905061121960008301846111f5565b92915050565b600061010083016000830151848203600086015261123d828261101b565b91505060208301516112526020860182611054565b5060408301516112656040860182611054565b5060608301516112786060860182611054565b50608083015161128b6080860182611063565b5060a083015161129e60a0860182611063565b5060c08301516112b160c086018261107e565b5060e08301516112c460e086018261107e565b508091505092915050565b600060208201905081810360008301526112e9818461121f565b905092915050565b60006020828403121561130757611306610c8f565b5b600061131584828501610ce2565b91505092915050565b600082825260208201905092915050565b600061133a82610fd5565b611344818561131e565b9350611354818560208601610ff1565b61135d81610d01565b840191505092915050565b61137181610e73565b82525050565b61138081611072565b82525050565b60006101008201905081810360008301526113a1818b61132f565b90506113b0602083018a6111f5565b6113bd60408301896111f5565b6113ca60608301886111f5565b6113d76080830187611368565b6113e460a0830186611368565b6113f160c0830185611377565b6113fe60e0830184611377565b9998505050505050505050565b6000806040838503121561142257611421610c8f565b5b600061143085828601610e94565b925050602061144185828601610e94565b9150509250929050565b7f4e487b7100000000000000000000000000000000000000000000000000000000600052602260045260246000fd5b6000600282049050600182168061149257607f821691505b6020821081036114a5576114a461144b565b5b50919050565b60008190508160005260206000209050919050565b60006020601f8301049050919050565b600082821b905092915050565b60006008830261150d7fffffffffffffffffffffffffffffffffffffffffffffffffffffffffffffffff826114d0565b61151786836114d0565b95508019841693508086168417925050509392505050565b6000819050919050565b600061155461154f61154a84610e3d565b61152f565b610e3d565b9050919050565b6000819050919050565b61156e83611539565b61158261157a8261155b565b8484546114dd565b825550505050565b600090565b61159761158a565b6115a2818484611565565b505050565b5b818110156115c6576115bb60008261158f565b6001810190506115a8565b5050565b601f82111561160b576115dc816114ab565b6115e5846114c0565b810160208510156115f4578190505b611608611600856114c0565b8301826115a7565b50505b505050565b600082821c905092915050565b600061162e60001984600802611610565b1980831691505092915050565b6000611647838361161d565b9150826002028217905092915050565b61166082610fd5565b67ffffffffffffffff81111561167957611678610d12565b5b611683825461147a565b61168e8282856115ca565b600060209050601f8311600181146116c157600084156116af578287015190505b6116b9858261163b565b865550611721565b601f1984166116cf866114ab565b60005b828110156116f7578489015182556001820191506020850194506020810190506116d2565b868310156117145784890151611710601f89168261161d565b8355505b6001600288020188555050505b505050505050565b7f4e487b7100000000000000000000000000000000000000000000000000000000600052601160045260246000fd5b600061176382610e3d565b91507fffffffffffffffffffffffffffffffffffffffffffffffffffffffffffffffff820361179557611794611729565b5b600182019050919050565b7f4e487b7100000000000000000000000000000000000000000000000000000000600052603260045260246000fd5b6000815490506117de8161147a565b9050919050565b8181036117f35750506118cb565b6117fc826117cf565b67ffffffffffffffff81111561181557611814610d12565b5b61181f825461147a565b61182a8282856115ca565b6000601f8311600181146118595760008415611847578287015490505b611851858261163b565b8655506118c4565b601f198416611867876114ab565b9650611872866114ab565b60005b8281101561189a57848901548255600182019150600185019450602081019050611875565b868310156118b757848901546118b3601f89168261161d565b8355505b6001600288020188555050505b5050505050505b565b60006118d882610e73565b91506118e383610e73565b925082820390508181126000841216828213600085121516171561190a57611909611729565b5b92915050565b60008160011c9050919050565b6000808291508390505b60018511156119675780860481111561194357611942611729565b5b60018516156119525780820291505b808102905061196085611910565b9450611927565b94509492505050565b6000826000811461198857600181146119925761199b565b6001915050611a57565b82915050611a57565b50816119aa5760009050611a57565b6001905060008213600181146119c757600081146119df576119f3565b8286048311156119da576119d9611729565b5b6119f3565b8286058312156119f2576119f1611729565b5b5b506001831615611a01578190505b8182029150611a0f83611910565b9250611a1d8584848461191d565b925090508185048111600082131615611a3957611a38611729565b5b8184058112600082121615611a5157611a50611729565b5b81810290505b949350505050565b600060ff82169050919050565b6000611a7782610e73565b9150611a8283611a5f565b9250611ad07f7fffffffffffffffffffffffffffffffffffffffffffffffffffffffffffffff7f80000000000000000000000000000000000000000000000000000000000000008585611970565b905092915050565b6000611ae382610e73565b9150611aee83610e73565b925082820190508281121560008312168382126000841215161715611b1657611b15611729565b5b92915050565b7f4e487b7100000000000000000000000000000000000000000000000000000000600052601260045260246000fd5b6000611b5682610e73565b9150611b6183610e73565b925082611b7157611b70611b1c565b5b600160000383147f800000000000000000000000000000000000000000000000000000000000000083141615611baa57611ba9611729565b5b82820590509291505056fea2646970667358221220c00e7ccbf7ad6b72002dfb145ba3145d5848dbf57dd16e152992430297488fd364736f6c63430008110033",
  "immutableReferences": {},
  "source": "// SPDX-License-Identifier: MIT\npragma solidity >=0.4.22 <0.9.0;\n\ncontract PayByLocation {\n \n    struct Employee {\n        string name;\n        uint256 distance;\n        uint256 registeredAt;\n        uint256 contractEnd;\n        int256 lat;\n        int256 lng;\n        bool comply;\n        bool paid;\n    }\n    \n    mapping(address => Employee) public employees;\n    mapping(uint => address) public employeesAddress;\n    uint public employeeCount;\n\n    constructor() {\n        employeeCount = 0;\n    }\n\n    function addEmployee(\n        address _employeeAddress,\n        string memory _name,\n        uint256 _allowedDistance,\n        uint256 _contractEnd,\n        int256 _lat,\n        int256 _lng\n    ) public {\n        uint256 time = block.timestamp;\n        Employee memory employee = Employee(\n            _name,\n            _allowedDistance,\n            time,\n            _contractEnd,\n            _lat,\n            _lng,\n            true,\n            false\n        );\n        employees[_employeeAddress] = employee;\n        employeesAddress[employeeCount] = _employeeAddress;\n        employeeCount++;\n\n    }\n\n    function getEmployee(uint index)\n        public\n        view\n        returns (Employee memory)\n    {\n        return (employees[employeesAddress[index]]);\n    }\n\n    function getEmployees()\n        public\n        view\n        returns (Employee[] memory)\n    {\n\n        Employee[] memory ret = new Employee[](employeeCount);\n        for (uint i = 0; i < employeeCount; i++) {\n            ret[i] = employees[employeesAddress[i]];\n        }\n        return ret;\n    \n    }\n    \n    function evaluate(int256 _lat, int256 _lng) public {\n        // Reference distance is lat and lng from the function parameters\n        address empAddr = msg.sender;\n        Employee storage employee = employees[empAddr];\n        bool comply = isComplied(_lat, _lng, employee);\n        \n        if (comply && block.timestamp >= employee.contractEnd && !employee.paid) {\n            // Reward the employee for compliance\n            employee.paid = true;\n            // You can define your reward mechanism here, for example, transferring tokens or ether\n            // For demonstration, let's assume rewarding with 1 ether\n            payable(empAddr).transfer(1 ether);\n        } else if (!comply && block.timestamp < employee.contractEnd) {\n            // Penalize the employee for non-compliance\n            // You can define your penalty mechanism here\n            // For demonstration, let's assume deducting 1 ether from the employee's balance\n            // Assuming the contract holds the balance of employees\n            // You would typically handle this with appropriate funds management in a real application\n            if (address(this).balance >= 1 ether) {\n                payable(empAddr).transfer(1 ether - 1 ether);\n            }\n        }\n\n        employees[empAddr] = employee;\n    }\n\n    function getDistance(\n        int256 _lat,\n        int256 _lng,\n        int256 _lat1,\n        int256 _lng1\n    ) private pure returns (int256) {\n        int256 dist = sqrt(((_lat - _lat1)**2) + ((_lng - _lng1)**2));\n        return dist;\n        // return 6;\n    }\n\n    function sqrt(int256 x) private pure returns (int256 y) {\n        int256 z = (x + 1) / 2;\n        y = x;\n        while (z < (y)) {\n            y = z;\n            z = (x / z + z) / 2;\n        }\n        return y;\n    }\n\n    function isComplied(\n        int256 _lat,\n        int256 _lng,\n        Employee memory _employee\n    ) private pure returns (bool) {\n        int256 distance = getDistance(\n            _lat,\n            _lng,\n            _employee.lat,\n            _employee.lng\n        );\n        return distance <= int(_employee.distance);\n    }\n\n    function getSender() public view returns (address) {\n        return msg.sender;\n    }\n\n}\n",
  "sourcePath": "C:\\Users\\Mulan\\Desktop\\tenx\\week9\\Refund-by-Location-Smart-Contract\\driver\\truffle\\contracts\\PayByLocation.sol",
  "compiler": {
    "name": "solc",
    "version": "0.8.17+commit.8df45f5f.Emscripten.clang"
  },
  "schemaVersion": "3.4.16",
  "updatedAt": "2024-02-10T15:02:40.857Z",
  "networkType": "ethereum",
  "devdoc": {
    "kind": "dev",
    "methods": {},
    "version": 1
  },
  "userdoc": {
    "kind": "user",
    "methods": {},
    "version": 1
  }
}